:020000040800F2
:1000000000400120D5BD000821BE000821BE000827
:1000100021BE000821BE000821BE0008000000002B
:1000200000000000000000000000000021BE0008E9
:1000300021BE00080000000021BE000821BE00080B
:1000400021BE000821BE000821BE000821BE000814
:1000500021BE000821BE000821BE000821BE000804
:1000600021BE000821BE000821BE000821BE0008F4
:1000700021BE000821BE000821BE000821BE0008E4
:1000800021BE000821BE000821BE000821BE0008D4
:1000900021BE000821BE000821BE000821BE0008C4
:1000A00021BE000821BE000821BE000821BE0008B4
:1000B00021BE000821BE000821BE000821BE0008A4
:1000C00021BE000821BE000821BE000821BE000894
:1000D00021BE000821BE000821BE000821BE000884
:1000E00021BE000821BE000821BE000821BE000874
:1000F00021BE00080000000021BE000821BE00084B
:1001000021BE000821BE000821BE000821BE000853
:1001100021BE000821BE000821BE0008000000002A
:1001200021BE0008000000000000000000000000E8
:1001300000000000000000005FF808F1044B0548D3
:100140001B1A062B02D9044B03B11847704700BF96
:100150005702002054020020000000000549064814
:10016000091A891001EBD171491002D0034B03B178
:10017000184770475402002054020020000000007D
:1001800010B5064C237843B9FFF7D8FF044B13B1E1
:100190000448AFF300800123237010BD54020020F7
:1001A000000000003C6F010808B5084B1BB108486F
:1001B0000849AFF300800848036813B9BDE8084058
:1001C000CCE7064B002BF9D09847F7E7000000007A
:1001D0003C6F01085802002050020020000000007F
:1001E000134B002B08BF114B9D46A3F5803A00210D
:1001F0008B460F461148124A121A0EF009FC0D4B9D
:10020000002B00D098470C4B002B00D098470020C3
:10021000002104000D000B480DF06BFE0EF03AFAC1
:10022000200029000BF0A0FD0DF07EFE000008006C
:1002300000400120000000000000000054020020E7
:10024000DC0D00208DE300080020704710B50B780E
:100250000A48C3F38202845C497803F003035A001E
:10026000C1F3401002EBC403054A034401F01F012F
:1002700052F8233001208840184010BDA04D0108DD
:100280005C50010810B50A784B780C4C1201D2B2C0
:1002900088782244C3F38301545C03F003035A00BB
:1002A000C0F3401102EBC40300F01F020120904094
:1002B000034A0B4452F82330184010BDA04D0108EA
:1002C0005C50010810B50B780A48C3F38202845CC5
:1002D000497803F003035A00C1F3401002EBC40352
:1002E000054A034401F01F0152F8233001208840E1
:1002F000184010BD5C5501085C50010810B50A7823
:100300004B780C4C1201D2B288782244C3F383019B
:10031000545C03F003035A00C0F3401102EBC40322
:1003200000F01F0201209040034A0B4452F8233092
:10033000184010BD5C5501085C5001088B78180608
:1003400023D50A78EF2A05D14878BF2802D1BD2BE2
:100350000AD91AE003F0C003C02B16D0E02A03D15B
:1003600048789F2811D909E0487801060DD5ED2A73
:1003700004D19F2894BF00200120704700F0C000E6
:10038000A0F1C00358425841704701207047000057
:1003900091422DE9F04106460C461746984600F07A
:1003A000A0800B78034493F848300A2B4ED8DFE83E
:1003B00003F048484D4D062D363F481A27004D1C86
:1003C000BD4200F092804B785D2B4CD18B1C9F423C
:1003D00000F08B808B783E2B45D10334C8F8004069
:1003E0002820BDE8F0814B1CBB427ED04A781644E1
:1003F00096F848200A2A08BF8B1CC8F8003002E093
:100400000134C8F800400720BDE8F0817B1A012BB9
:100410006FDDD0F86031984798B9A51C23E07B1AAE
:10042000022B66DDD0F86431984750B9E51C1AE01C
:100430007B1A032B5DDDD0F86831984708B9251D7C
:1004400011E0C8F800400020BDE8F0814D1C0AE032
:100450007B1B012B40DDD6F860313046294698479A
:10046000002839D10235BD4236D02B78334493F879
:1004700048300A2B2ED801A252F823F0D9040008E4
:10048000D9040008D5040008D5040008D9040008E0
:1004900051040008A9040008BF040008D90400089A
:1004A000D9040008D90400087B1B022B14DDD6F800
:1004B000643130462946984770B90335D3E77B1B32
:1004C000032B09DDD6F8683130462946984718B91C
:1004D0000435C8E70135C6E7C8F800500620BDE876
:1004E000F0816FF00300BDE8F0814FF0FF30BDE810
:1004F000F0816FF00100BDE8F08100BF9142F8B5D6
:1005000005460C4617461E4602D14FF0FF30F8BD97
:100510000B78034493F84830132B2ED007D8062BC2
:1005200019D0072B20D0052B40F0888007E0182B2E
:100530005ED01D2B00F08280162B7FD158E0531A1D
:10054000012B02DC6FF00100F8BDD0F85431984760
:10055000002859D172E0531A022BF3DDD0F858313C
:10056000984700285CD169E0531A032BEADDD0F8E4
:100570005C31984700285FD160E04A1CBA42C4D081
:100580004B78782B19D18A1CBA42BED08B780344A1
:1005900093F84830183B012B14D80334BC4223464F
:1005A000B3D01A7801342A4492F84820122A19D07C
:1005B0001CD3183A012AF1D918E0034493F84830C3
:1005C000192B01D032603AE0023401E0192A0DD132
:1005D000BC42234699D01A7801342A4492F8482024
:1005E000122AF3D1013333600A20F8BD336026E0CC
:1005F000013426E03B1B012BA4DDD5F84831284609
:100600002146984700285BD002341AE03B1B022B9E
:1006100098DDD5F84C3128462146984700284FD020
:1006200003340EE03B1B032B8CDDD5F850312846FC
:1006300021469847002843D0043402E0346000206B
:10064000F8BDBC423FF461AF23782B4493F84830A7
:10065000053B182BF2D801A252F823F0F50500084B
:100660000D060008250600083D0600083D060008A6
:100670003D0600083D0600083D0600083D0600084E
:100680003D0600083D0600083D0600083D0600083E
:10069000C50600083D0600083D0600083D060008A6
:1006A000F10500083D060008F1050008F105000805
:1006B000F1050008F10500083D0600083D060008A8
:1006C0003460F8BD013434600920F8BD9142F8B5BA
:1006D00005460C4617461E4602D14FF0FF30F8BDC6
:1006E0000B78034493F84830053B192B52D8DFE8C8
:1006F00003F00D1820512828515151515151515199
:100700005151282B512B5151515151287B1A012BFA
:1007100002DC6FF00100F8BDD0F854319847F8B909
:1007200038E07B1A022BF4DDD0F85831984718BB1B
:1007300030E07B1A032BECDDD0F85C31984738BBF6
:1007400028E031601620F8BD013426E03B1B012B68
:10075000DFDDD5F8483128462146984700285BD090
:1007600002341AE03B1B022BD3DDD5F84C3128466E
:100770002146984700284FD003340EE03B1B032B43
:10078000C7DDD5F85031284621469847002843D088
:10079000043402E034600020F8BDBC429DD02378D0
:1007A0002B4493F84830053B182BF3D801A252F89C
:1007B00023F000BF4D070008650700087D0700080B
:1007C0009507000895070008950700089507000899
:1007D0009507000895070008950700089507000889
:1007E00095070008950700081D08000895070008F0
:1007F00095070008950700084907000895070008B5
:100800004907000849070008490700084907000888
:1008100095070008950700083460F8BD013434607E
:100820001C20F8BD2DE9F04180460D4614461E46B9
:10083000069FB4424DD023782B4493F848300D2BBB
:1008400044D8DFE803F0282843434307121D284318
:1008500043432A2A331B012B3FDDD5F8603128465C
:1008600021469847B8B9A21C31E0331B022B34DD76
:10087000D5F8643128462146984760B9E21C26E045
:10088000331B032B29DDD5F86831284621469847CC
:1008900008B9221D1BE03C6027E0434504F101023A
:1008A00015D1B2421DD03A6063781D4495F84830A6
:1008B000093BDBB2152B18D801229A400C4B134090
:1008C000002B14BF1B200020BDE8F081621C1446E1
:1008D000AFE74FF0FF30BDE8F0816FF00100BDE8F9
:1008E000F0816FF01A00BDE8F0810020BDE8F081D2
:1008F00007182000914230B543D00C4625780544B6
:1009000095F84850023D132D35D8DFE805F0171053
:10091000340A0C0E341F1A3434343434343434343E
:10092000342E023428E0033426E0043424E08C42E0
:1009300024D1611CBDE83040FFF7E0BD1C60002001
:1009400030BD8C421AD101341C600CE08C4215D1B0
:10095000611C914218D06278104490F848200A2A0D
:1009600008BFA11C1960072030BD8C4206D101349C
:100970001C60272030BD01349442BFD11C6006208A
:1009800030BD6FF0030030BD6FF0020030BD91420A
:1009900070B544D00C462578054495F84850072D8D
:1009A00011D005D8052D0AD00BD8032D0DD030E07D
:1009B0000A2D1AD01E2D0FD0092D2AD11AE002348B
:1009C00028E0033426E0043424E08C4224D1611C66
:1009D000BDE87040FFF792BD8C421DD1611CFFF74E
:1009E00075FE162808BF002070BD8C4214D101345A
:1009F0001C600CE08C420FD1611C914212D06278D5
:100A0000104490F848200A2A08BFA11C196007204A
:100A100070BD01349442BED11C60062070BD6FF0E1
:100A2000030070BD6FF0020070BD0000F0B5013A28
:100A3000013191420F461FD011F8016B841994F8CF
:100A40004850093DEDB21A2D0FD80124AC400B4D92
:100A50002540002DEDD114F4083504D1E50404D56A
:100A6000092EE6D105E03406E3D5242EE1D0402E50
:100A7000DFD01F600020F0BD0120F0BDF387E50747
:100A8000F0B50027064638460131012491F800C030
:100A900006EB0C0595F84850033D1A2D00F298809E
:100AA000DFE805F084960E1C2A9680808D455096CE
:100AB00096968D96969662389638969696963800C3
:100AC00054B99042B8BF05014FF00104BEBF03EB1B
:100AD000050E59518EF80C40013179E054B990421D
:100AE000B8BF05014FF00104BEBF03EB050E59511D
:100AF0008EF80C4002316BE054B99042B8BF05014A
:100B00004FF00104BEBF03EB050E59518EF80C40A7
:100B100003315DE0002C5BD190424FF0010457DAC5
:100B2000050103EB050E59518EF80C4050E0022CE4
:100B300006D0904246DA03EB00144D1C656041E09C
:100B40000C2F09E0022C06D090423DDA03EB001492
:100B50004D1C656038E00D2F3AD19042BCBF03EBCD
:100B60000014A160013032E0012C30D0022C2FD1D2
:100B700090422DDA03EB001E9EF80C5045B3DEF8D0
:100B80000450A9420AD0BCF1200F07D14D78202D86
:100B900004D0354495F84850BD4219D100258EF84F
:100BA0000C5015E0012C12D0022C11D190420FDA1A
:100BB00003EB00154FF0000E85F80CE008E0022C66
:100BC00006D0F0BD0C2700E00D27022400E0002431
:100BD00001315BE7521A032A10D0042A1AD0022AE4
:100BE00035D14B78742B32D10B78672B04D06C2B1A
:100BF0000CBF3C20002070473E2070470B78612BD3
:100C000025D14B786D2B22D18B78702B14BF00200F
:100C1000262070470B78612B0DD0712B17D14B78A4
:100C2000752B14D18B786F2B11D1CB78742B14BF0B
:100C30000020222070474B78702B08D18B786F2BC7
:100C400005D1CB78732B14BF0020272070470020DC
:100C50007047000030B50C78031993F84830162B14
:100C600026D006D8062B11D0072B09D0052B27D16B
:100C700014E0182B24D31B2B1AD91D2B18D01FE0DE
:100C8000531C12780131A2422CD11A464B1C541C21
:100C900009781278914225D1224619460C781378AA
:100CA0009C421FD18B1C951C49785278914203E0DD
:100CB000551C12784B1CA24214D12A461946CAE789
:100CC00013789C4210D0034493F848300120053B30
:100CD000DBB2182B09D89840044B0340B3FA83F0D9
:100CE000400930BD002030BD012030BD07007A0131
:100CF00010B5013B13F8010F0C4630B1914208D0FA
:100D0000247801318442F5D003E0531A5842584107
:100D100010BD002010BD0B461A78024492F84820FE
:100D2000162A13D007D8062A0CD0072A0CD0052A79
:100D30000ED10233F0E7182A0AD31B2A06D91D2A3E
:100D400004D005E00333E7E70433E5E70133E3E7E5
:100D5000581A704710B504460846037801312344F9
:100D600093F84830093BDBB20C2B06D801229A409D
:100D700041F203031340002BEED110BD30B5914278
:100D80002FD20C78044494F84840053C052C23D815
:100D9000DFE804F003050722100902311DE00331EA
:100DA0001BE0043119E04FF0FF345C601C68013433
:100DB0001C6011E01C6801341C604C1C944206D07D
:100DC0004D78054495F848500A2D08BF8C1C4FF00B
:100DD000FF315960214600E001315C6801345C60FC
:100DE000CDE730BDF0B5059C0D681E68501BA41BF7
:100DF000A04209DD2C44AC42224605D914F8010D6D
:100E000000F0C0008028F6D028463446904204D036
:100E100010F8017B04F8017BF8E70860401B3044C0
:100E20001860F0BDF0B5DDF814E01F680C6894425E
:100E30004CD077454AD0257807F1020C461996F830
:100E40004860062E0DD0072E19D0052E3AD16678AF
:100E500005F01F0506F03F0646EA85153D80023481
:100E600032E0A678033406F03F0646EA053514F86A
:100E7000026C06F03F0645EA86153D8024E0E64513
:100E800024D0667805F0070506F03F06360346EAEB
:100E90008545E678043706F03F062E43A5780434EE
:100EA00005F03F0546EA8515A5F58035AE0AC5F380
:100EB000090546F4584645F45C4527F8046C27F8C4
:100EC000025CB4E701343D806746B0E70C601F6008
:100ED000F0BDF0B5059E0868904224D005781868EA
:100EE000ECB214F0800F14D0371A012F1BDDAD09BE
:100EF000471C65F03F051F600570186804F03F044B
:100F0000451C64F07F041D600470086801300860AF
:100F1000E1E7B04207D0441C1C600C68651C0D6002
:100F200024780470D7E7F0BD70B5049D086890423E
:100F30000AD01868A84207D0841C1C600C68661C84
:100F40000E6024780480F1E770BD70B5049D0868D8
:100F500090420AD01868A84207D0441C1C600C6854
:100F6000661C0E6024780470F1E770BDDF2804D899
:100F7000DC2805D2D8280CD204E0FF2804D001E0F8
:100F8000082070471D207047FE2934BF1D20002017
:100F9000704707207047F0B5059F0D68954200F037
:100FA00090806E782878072E1C6801D836B10DE045
:100FB000A6F1D80EBEF1030F3FD920E010F0800F4C
:100FC00004D1BC427DD0661C1E6016E0C4EB070E47
:100FD000BEF1010F75DD04F1010EC3F800E04FEA28
:100FE000901E6EF03F0E4EEA860626701C6800F0DA
:100FF0003F00661C1E6060F07F0020705FE0C4EB65
:10100000070EBEF1020F5CDD04F1010EC3F800E033
:101010004FEA161E6EF01F0E84F800E0D3F800E0D1
:1010200006F00F060EF101041C60840964F07F04D1
:1010300044EA86068EF80060D8E7C4EB070EBEF1DE
:10104000030F3EDD4FEA901E06F003064EEA8606C9
:10105000013604F1010EC3F800E04FEAA60E6EF06F
:101060000F0E84F800E0D3F800E006F003060EF15E
:1010700001041C60C0F3830464F07F0444EA061694
:101080008EF80060D3F800E0AE780EF101041C6029
:10109000B40964F07F0400F0030044EA0010EC7827
:1010A000023504F0030440EA84008EF800001C6856
:1010B000601C186006F03F0060F07F002070023571
:1010C0006CE70D60F0BD0868F0B5059E141A18684D
:1010D000301A20F00100844214DD12F8010C00F0F7
:1010E000F800D8280ED1023A0CE01C68B4420CD0AB
:1010F000A01C18600868477810F8025B45EA0725CD
:101100002580086008689042EFD1F0BDF0B5059FDA
:101110000D68954200F090802E786878072E1C6844
:1011200001D836B10DE0A6F1D80EBEF1030F3FD9BC
:1011300020E010F0800F04D1BC427DD0661C1E6000
:1011400016E0C4EB070EBEF1010F75DD04F1010ED0
:10115000C3F800E04FEA901E6EF03F0E4EEA86069E
:1011600026701C6800F03F00661C1E6060F07F0067
:1011700020705FE0C4EB070EBEF1020F5CDD04F1EE
:10118000010EC3F800E04FEA161E6EF01F0E84F841
:1011900000E0D3F800E006F00F060EF101041C6039
:1011A000840964F07F0444EA86068EF80060D8E77C
:1011B000C4EB070EBEF1030F3EDD4FEA901E06F0B2
:1011C00003064EEA8606013604F1010EC3F800E07C
:1011D0004FEAA60E6EF00F0E84F800E0D3F800E0A0
:1011E00006F003060EF101041C60C0F3830464F0F2
:1011F0007F0444EA06168EF80060D3F800E0EE782B
:101200000EF101041C60B40964F07F0400F00300D7
:1012100044EA0010AC78023504F0030440EA84008C
:101220008EF800001C68601C186006F03F0060F03B
:101230007F00207002356CE70D60F0BD0868F0B5E6
:10124000059E141A1868301A20F00100844214DD3B
:1012500012F8020C00F0F800D8280ED1023A0CE087
:101260001C68B4420CD0A01C186008680778457848
:10127000023045EA07252580086008689042EFD1D2
:10128000F0BD91422DE9F04180460C4616461F46BE
:1012900000F08980521AD10704D532F0010200F023
:1012A0008680A6186078217818B9414491F84800E2
:1012B00001E0FFF75BFE0A2848D8DFE800F043436F
:1012C00047470635393E431C3000A51CB5426ED059
:1012D000E378002B3DD1A3785D2B3AD1231D9E42AC
:1012E00065D06379ABBB23793E2B32D106343C60A9
:1012F0002820BDE8F081A51CB54258D0E078A1783F
:1013000018B9414491F8480001E0FFF72FFEA0F121
:101310000A035842584100B1251D3D6001E00234E6
:101320003C600720BDE8F081331B012B0EDC42E05E
:10133000331B022B3FDDE51C0BE0331B032B3ADD97
:10134000251D06E03C600020BDE8F081A51C00E002
:101350000335B54223D06878297818B9414491F80B
:10136000480001E0FFF702FE0A2816D8DFE800F087
:101370001717151517060A1017171700731B012BDF
:101380000BDC0CE0731B022BE2DC3D60BDE8F0815E
:10139000731B032B03DD0435DBE70235D9E73D6022
:1013A0000620BDE8F0816FF00300BDE8F0814FF04A
:1013B000FF30BDE8F0816FF00100BDE8F081000072
:1013C00091422DE9F04705460C4617461E4600F0AF
:1013D0000A8191F8019091F80080B9F1000F04D1D1
:1013E00000EB080393F8480003E048464146FFF746
:1013F000BDFD13282AD008DC062820D0072821D0DC
:10140000052878D13F1B012F1EE0182815D01D2874
:1014100002D016286FD110E0774B784913F80920D5
:101420004FEA581303EBC20208F01F08012351F8DA
:10143000222003FA08F313425DD004345EE03F1B20
:10144000022F01E03F1B032F55DCD0E004F102081E
:10145000B84500F0C880E078A17858BB782925D13C
:1014600004F10408B84500F0BE806079217918B90C
:10147000294491F8480001E0FFF778FD1838012869
:101480001CD80634BC4200F0AE806078217818B9D0
:10149000294491F8480001E0FFF768FD122822D0A6
:1014A00029DB1838012826D80234EBE7294491F8C3
:1014B000480001E0FFF75AFD192804D0C6F8008063
:1014C0000020BDE8F087043402E0192813D102346B
:1014D000BC4200F088806078217848B9294491F8AE
:1014E00048001228F1D1023434600A20BDE8F087A8
:1014F000FFF73CFDF5E73460E2E70234A4F10208AF
:10150000B84570D014F801AC14F8029CBAF1000F81
:1015100004D105EB090393F8480003E0504649461F
:10152000FFF724FD05381828C8D801A353F820F088
:10153000BF150008C7150008CF150008BD14000826
:10154000BD140008BD140008BD140008BD14000837
:10155000BD140008BD140008BD140008BD14000827
:10156000BD140008DB150008BD140008BD140008F8
:10157000BD140008FB140008BD140008FB1400088B
:10158000FB140008FB140008FB140008BD1400083D
:10159000951500081A4B012013F80A204FEA591339
:1015A00003EBC203154A09F01F0952F8233000FA71
:1015B00009F01840A1D1C6F80080BDE8F087C8EB5B
:1015C0000707012F06E0C8EB0707022F02E0C8EB70
:1015D0000707032F3FF772AF09E008F102033360FA
:1015E0000920BDE8F0874FF0FF30BDE8F0876FF0CD
:1015F0000100BDE8F08700BF5C5501085C500108A0
:10160000A04D010891422DE9F04707460D461446CA
:10161000984600F0AC8091F801900E78B9F1000F77
:1016200003D1831993F8480003E048463146FFF799
:101630009DFC053819282DD8DFE800F02326292C39
:101640001E1E2C2C2C2C2C2C2C2C2C2C1E1C2C1C24
:101650002C2C2C2C0D1E4A4B4A4913F809207309D7
:1016600003EBC20206F01F06012351F82220B3400B
:1016700013420FD02E1D13E0C8F800501620BDE80D
:10168000F087641B012C04E0641B022C01E0641B46
:10169000032C70DDC8F800500020BDE8F08702364A
:1016A000B51EA54263D016F801AC16F8029CBAF13B
:1016B000000F04D107EB090393F8480003E05046FC
:1016C0004946FFF753FC05381828E3D801A353F81F
:1016D00020F000BF83160008891600088F16000846
:1016E000951600089516000895160008951600082E
:1016F000951600089516000895160008951600081E
:10170000951600089516000863170008951600083E
:1017100095160008951600089F16000895160008F3
:101720009F1600089F1600089F1600089F160008C5
:101730009516000839170008134B012013F80A20EA
:101740004FEA591303EBC2030E4A09F01F0952F87E
:10175000233000FA09F01840A1D1C8F80050BDE8C4
:10176000F0870235C8F800501C20BDE8F0874FF024
:10177000FF30BDE8F0876FF00100BDE8F08700BFE3
:101780005C5501085C500108A04D01082DE9F041AD
:1017900080460E4614461D46069FAC4243D06078F4
:1017A000217818B9314491F8480001E0FFF7DEFBD9
:1017B0000D2835D8DFE800F01515343434070B1048
:1017C0001534343417172B1B012B29DC2FE02B1B6E
:1017D000022B2CDDE21C24E02B1B032B27DD221D1A
:1017E0001FE03C602BE0404504F1020219D1AA42FF
:1017F00021D03A60E078A17818B9314491F84800D6
:1018000001E0FFF7B3FB0938152818D801220D4B6A
:1018100082401340002B14BF1B200020BDE8F08144
:10182000A21C1446B9E74FF0FF30BDE8F0816FF01D
:101830000100BDE8F0816FF01A00BDE8F0810020E2
:10184000BDE8F0810718200091422DE9F041804663
:101850000E4617461D4655D00C466078217818B9BB
:10186000414491F8480001E0FFF780FB023813285B
:1018700041D8DFE800F0180E40400A0C40211C401F
:1018800040404040404040404039033434E004345C
:1018900032E0B44232D14046A11C3A462B46BDE864
:1018A000F041FFF78DBD2C600020BDE8F081B4420F
:1018B00024D102342C6014E0B4421FD1A61CBE42D5
:1018C00024D0E078A17818B9414491F8480001E0AB
:1018D000FFF74CFBA0F10A035842584100B1261D06
:1018E0002E600720BDE8F081B44207D102342C609D
:1018F0002720BDE8F0810234BC42AED12C60062026
:10190000BDE8F0816FF00300BDE8F0816FF00200E8
:10191000BDE8F08191422DE9F04180460E46174620
:101920001D4658D00C466078217818B9414491F88A
:10193000480001E0FFF71AFB07280FD005DC052857
:1019400042D009DC03280BD03EE00A281FD01E2815
:1019500010D0092838D11FE0033436E0043434E0D5
:10196000B44234D14046A11C3A462B46BDE8F04172
:10197000FFF726BDB4422AD14046A11C3A462B4669
:10198000FFF740FE162808BF0020BDE8F081B442F2
:101990001DD102342C6014E0B44218D1A61CBE4202
:1019A0001DD0E078A17818B9414491F8480001E0D1
:1019B000FFF7DCFAA0F10A035842584100B1261D96
:1019C0002E600720BDE8F0810234BC42ABD12C6010
:1019D0000620BDE8F0816FF00300BDE8F0816FF0F4
:1019E0000200BDE8F08100002DE9F04780469946ED
:1019F000A2F1020A0E1DB71E57452ED016F8014C53
:101A000016F8025C24B908EB050393F8480003E0DC
:101A100020462946FFF7AAFA09381A2811D80121C9
:101A20000F4B81400B40B3B911F4083F05D1CA04F4
:101A300007D584B9092D0ED108E03CB92B060AD58B
:101A400000E01CB9242D06D0402D04D0C9F8007048
:101A50000020BDE8F0870236CDE70120BDE8F08721
:101A6000F387E5072DE9F74F4FF0000982469046CE
:101A70001F464D468E1C01247278337822B90AEB3A
:101A8000030191F8480007E01046194601920093BF
:101A9000FFF76CFA019A009B03381A2800F28B803A
:101AA000DFE800F07789260E1A8973737E313D894D
:101AB00089897E898989502689268989898926008C
:101AC00044B94545B8BF2B014FF00104BEBFFA1819
:101AD000FE50147301366EE044B94545B8BF2B0182
:101AE0004FF00104BEBFFA18FE501473023662E0D4
:101AF000002C60D145454FF001045CDA2B01FA1847
:101B0000FE50147357E0022C06D045454BDA07EB24
:101B10000513B21C5A6046E0B9F10C0F0AE0022C22
:101B200006D0454542DA07EB0513B21C5A603DE08A
:101B3000B9F10D0F3FD14545BCBF07EB05139E60C2
:101B4000013537E0012C35D0022C34D1454532DA4D
:101B500007EB051B9BF80C1069B3DBF804108E42F1
:101B60000FD072B9202B0CD1F078B17828B9202988
:101B700007D0514491F8480001E0FFF7F7F94845D4
:101B800019D100238BF80C3015E0012C12D0022C57
:101B900011D145450FDA07EB051300221A730AE04D
:101BA000022C08D009E04FF00C0901E04FF00D09BC
:101BB000022400E0002402365EE7284603B0BDE8B8
:101BC000F08F521A022392FBF3F2032A16D0042A52
:101BD00029D09A4252D1C87800284FD18B78742BE3
:101BE0004FD14B78002B4CD10B78672B04D06C2B4A
:101BF0000CBF3C20002070473E20704748780028EA
:101C00003CD10B78612B3CD1CB78002B39D18A7831
:101C10006D2A35D14A79002A32D10B79702B14BF45
:101C20000020262070474B7843BB0A78612A13D0E6
:101C3000712A25D1C87818BB8B78752B21D14B79A7
:101C4000FBB90A796F2A1BD1CB79BBB98B79742B7D
:101C500014BF002022207047C87888B98B78702B79
:101C60000FD14B796BB90A796F2A09D1CA793AB980
:101C70008B79732B14BF00202720704700207047FA
:101C8000184670472DE9F04180460D4614466F789E
:101C90002E7827B908EB060393F8480003E038468E
:101CA0003146FFF763F9162828D006DC062812D043
:101CB000072809D005282CD116E0182829DB1B2875
:101CC0001CDD1D281AD024E022780135964204F14B
:101CD000010334D11C46287821786B1C884204F11A
:101CE00001022CD114461D462A7823789A4226D127
:101CF00068786178AB1CA21C884206E02378B34266
:101D00001DD16178A21CAB1CB94218D114461D46E6
:101D1000BDE76078217818B9414491F8480001E0A6
:101D2000FFF724F9431F182B4FF0010008D8984003
:101D3000044B0340B3FA83F04009BDE8F081002072
:101D4000BDE8F08107007A0130B5013B13F8014F7F
:101D500044B191420AD0487840B90D78A54206D1E5
:101D60000231F3E78B1A5842584130BD002030BD94
:101D700070B506460D460C466078217818B9314496
:101D800091F8480001E0FFF7F1F8162811D005DCC2
:101D900006280AD007280AD0052804E018280ADBFC
:101DA0001B2806DD1D2806D103E00334E4E70434D4
:101DB000E2E70234E0E7601B70BD70B506468C1C9C
:101DC00014F8010CA51E14F8021C18B9314491F83E
:101DD000480001E0FFF7CAF809380C2807D841F29B
:101DE00003030122824013400234002BE8D128462D
:101DF00070BD2DE9F04107460C4616461D46B4421B
:101E00003CD26078217818B9394491F8480001E053
:101E1000FFF7ACF8053805282BD8DFE800F02A03D7
:101E2000052A0E07033425E0043423E04FF0FF3386
:101E30006B602B6801332B601BE02B6804F10208F8
:101E40000133B0452B600FD0E078A17818B9394440
:101E500091F8480001E0FFF789F8A0F10A03584221
:101E6000584108B104F104084FF0FF336B60444659
:101E700000E002346B6801336B60C0E7BDE8F081BD
:101E800091422DE9F04180460C4616461F4600F06F
:101E90008980521AD10704D532F0010200F0868001
:101EA000A6182078617818B9414491F8480001E0FB
:101EB000FFF75CF80A2848D8DFE800F043434747BB
:101EC0000635393E431C3000A51CB5426ED0A378C0
:101ED000002B3DD1E3785D2B3AD1231D9E4265D086
:101EE0002379ABBB63793E2B32D106343C6028208A
:101EF000BDE8F081A51CB54258D0A078E17818B9AA
:101F0000414491F8480001E0FFF730F8A0F10A03DE
:101F10005842584100B1251D3D6001E002343C604B
:101F20000720BDE8F081331B012B0EDC42E0331BA0
:101F3000022B3FDDE51C0BE0331B032B3ADD251D97
:101F400006E03C600020BDE8F081A51C00E0033500
:101F5000B54223D02878697818B9414491F84800EF
:101F600001E0FFF703F80A2816D8DFE800F017179A
:101F7000151517060A1017171700731B012B0BDC1A
:101F80000CE0731B022BE2DC3D60BDE8F081731BAB
:101F9000032B03DD0435DBE70235D9E73D6006207E
:101FA000BDE8F0816FF00300BDE8F0814FF0FF3035
:101FB000BDE8F0816FF00100BDE8F08191422DE9AC
:101FC000F84305460C4617461E4600F0FE8091F881
:101FD000009091F80180B9F1000F04D100EB0803E3
:101FE00093F8480003E048464146FEF7BFFF132838
:101FF00024D009DC062800F0DA80072800F0DA8017
:10200000052840F0E080CFE018286ED01D2803D0CE
:10201000162840F0D88068E0704B714913F8092009
:102020004FEA581303EBC20208F01F08012351F8CE
:10203000222003FA08F3134257D1C4E004F1020846
:10204000B84500F0C280A078E17868BB782927D134
:1020500004F10408B84500F0B8802079617918B916
:10206000294491F8480001E0FEF780FF1838012864
:102070001ED80634BC4200F0A8802078617818B9D8
:10208000294491F8480001E0FEF770FF122824D09F
:10209000C0F299801838012800F295800234E9E7EF
:1020A000294491F8480001E0FEF760FF192804D0A8
:1020B000C6F800800020BDE8F883043403E0192846
:1020C00040F081800234BC427FD02078617848B9EA
:1020D000294491F848001228F1D1023434600A20D2
:1020E000BDE8F883FEF742FFF5E70234BC426CD04E
:1020F00094F8009094F80180B9F1000F04D105EB39
:10210000080393F8480003E048464146FEF72EFFD7
:102110000538182857D801A353F820F0A921000842
:10212000AF210008B5210008C7210008C721000819
:10213000C7210008C7210008C7210008C7210008DF
:10214000C7210008C7210008C7210008C7210008CF
:10215000BD210008C7210008C7210008C7210008C9
:10216000EB200008C7210008EB200008EB20000846
:10217000EB200008EB200008C7210008812100089F
:10218000184B012013F809204FEA581303EBC20340
:10219000134A08F01F0852F8233000FA08F01840DC
:1021A000A3D13460BDE8F8833F1B012F04E03F1B3F
:1021B000022F01E03F1B032F05DC0AE002343460EC
:1021C0000920BDE8F883346074E74FF0FF30BDE8C4
:1021D000F8836FF00100BDE8F88300BF5C5501088B
:1021E0005C500108A04D010891422DE9F8430746D3
:1021F0000C4615461E4600F0AC8091F8009091F810
:102200000180B9F1000F04D100EB080393F84800F6
:1022100003E048464146FEF7A9FE0538192800F2BA
:102220009480DFE800F0838689921F1F9292929239
:102230009292929292921F239223929292920D1FC7
:10224000484B494913F809204FEA581303EBC202DF
:1022500008F01F08012351F8222003FA08F3134263
:1022600004D172E034601620BDE8F8830234AC4239
:102270006FD094F8009094F80180B9F1000F04D168
:1022800007EB080393F8480003E048464146FEF791
:102290006DFE0538182858D801A353F820F000BF68
:1022A0002D23000833230008392300084B2300089E
:1022B0004B2300084B2300084B2300084B23000846
:1022C0004B2300084B2300084B2300084B23000836
:1022D0004B230008412300084B2300084B23000830
:1022E0004B2300086D2200084B2300086D220008D4
:1022F0006D2200086D2200086D2200084B230008A3
:1023000005230008194B012013F809204FEA581340
:1023100003EBC203144A08F01F0852F8233000FAF6
:1023200008F01840A2D13460BDE8F8832D1B012DC0
:1023300004E02D1B022D01E02D1B032D05DC0CE01C
:10234000023434601C20BDE8F88334600020BDE80E
:10235000F8834FF0FF30BDE8F8836FF00100BDE86F
:10236000F88300BF5C5501085C500108A04D0108CE
:102370002DE9F04180460E4614461D46069FAC42AC
:1023800043D02078617818B9314491F8480001E0D1
:10239000FEF7ECFD0D2835D8DFE800F015153434D4
:1023A00034070B101534343417172B1B012B29DC81
:1023B0002FE02B1B022B2CDDE21C24E02B1B032B1C
:1023C00027DD221D1FE03C602BE0404504F10202A6
:1023D00019D1AA4221D03A60A078E17818B93144E5
:1023E00091F8480001E0FEF7C1FD0938152818D81A
:1023F00001220D4B82401340002B14BF1B200020F4
:10240000BDE8F081A21C1446B9E74FF0FF30BDE8EB
:10241000F0816FF00100BDE8F0816FF01A00BDE8B7
:10242000F0810020BDE8F0810718200091422DE9DD
:10243000F04180460E4617461D4655D00C46207882
:10244000617818B9414491F8480001E0FEF78EFD2B
:102450000238132841D8DFE800F0180E40400A0C7B
:1024600040211C40404040404040404040390334FF
:1024700034E0043432E0B44232D14046A11C3A4642
:102480002B46BDE8F041FFF799BD2C600020BDE868
:10249000F081B44224D102342C6014E0B4421FD144
:1024A000A61CBE4224D0A078E17818B9414491F826
:1024B000480001E0FEF75AFDA0F10A0358425841D6
:1024C00000B1261D2E600720BDE8F081B44207D17F
:1024D00002342C602720BDE8F0810234BC42AED12A
:1024E0002C600620BDE8F0816FF00300BDE8F081AC
:1024F0006FF00200BDE8F08191422DE9F041804685
:102500000E4617461D4658D00C462078617818B9FB
:10251000414491F8480001E0FEF728FD07280FD05C
:1025200005DC052842D009DC03280BD03EE00A2850
:102530001FD01E2810D0092838D11FE0033436E000
:10254000043434E0B44234D14046A11C3A462B4610
:10255000BDE8F041FFF732BDB4422AD14046A11C8C
:102560003A462B46FFF740FE162808BF0020BDE87C
:10257000F081B4421DD102342C6014E0B44218D171
:10258000A61CBE421DD0A078E17818B9414491F84C
:10259000480001E0FEF7EAFCA0F10A035842584166
:1025A00000B1261D2E600720BDE8F0810234BC4238
:1025B000ABD12C600620BDE8F0816FF00300BDE8D0
:1025C000F0816FF00200BDE8F08100002DE9F843D2
:1025D000074698468D1CA2F102094D452BD02C7858
:1025E0006E781CB9BB1993F8480003E020463146C9
:1025F000FEF7BCFC09381A2811D8012181400F4888
:102600000840B0B911F4083F05D1CA0407D584B910
:10261000092E0ED108E03CB933060AD500E01CB9FA
:10262000242E06D0402E04D0C8F800500020BDE86B
:10263000F8830235D1E70120BDE8F883F387E50789
:102640002DE9F74F4FF00009824690461F464D4650
:102650008E1C01243278737822B90AEB030191F8B9
:10266000480007E01046194601920093FEF77EFCF1
:10267000019A009B03381A2800F28B80DFE800F0F3
:102680007789260E1A8973737E313D8989897E89FF
:1026900089895026892689898989260044B9454532
:1026A000B8BF2B014FF00104BEBFFA18FE501473DF
:1026B00001366EE044B94545B8BF2B014FF0010427
:1026C000BEBFFA18FE501473023662E0002C60D1CF
:1026D00045454FF001045CDA2B01FA18FE501473E3
:1026E00057E0022C06D045454BDA07EB0513B21C28
:1026F0005A6046E0B9F10C0F0AE0022C06D04545BD
:1027000042DA07EB0513B21C5A603DE0B9F10D0F38
:102710003FD14545BCBF07EB05139E60013537E04F
:10272000012C35D0022C34D1454532DA07EB051B9C
:102730009BF80C1069B3DBF804108E420FD072B90D
:10274000202B0CD1B078F17828B9202907D051443A
:1027500091F8480001E0FEF709FC484519D1002333
:102760008BF80C3015E0012C12D0022C11D145450C
:102770000FDA07EB051300221A730AE0022C08D0C7
:1027800009E04FF00C0901E04FF00D09022400E0D0
:10279000002402365EE7284603B0BDE8F08F521AE7
:1027A000022392FBF3F2032A16D0042A29D09A427C
:1027B00052D1887800284FD1CB78742B4FD10B7829
:1027C000002B4CD14B78672B04D06C2B0CBF3C20DA
:1027D000002070473E207047087800283CD14B7895
:1027E000612B3CD18B78002B39D1CA786D2A35D139
:1027F0000A79002A32D14B79702B14BF0020262091
:1028000070470B7843BB4A78612A13D0712A25D1CF
:10281000887818BBCB78752B21D10B79FBB94A7915
:102820006F2A1BD18B79BBB9CB79742B14BF0020D5
:1028300022207047887888B9CB78702B0FD10B791C
:102840006BB94A796F2A09D18A793AB9CB79732B56
:1028500014BF00202720704700207047184670479B
:102860002DE9F04180460D4614462E786F7826B942
:1028700008EB070393F8480003E030463946FEF7BB
:1028800075FB162828D006DC062812D0072809D0A8
:1028900005282CD116E0182829DB1B281CDD1D2853
:1028A0001AD024E022780135B24204F1010334D178
:1028B0001C46287821786B1C884204F101022CD137
:1028C00014461D462A7823789A4226D16878617882
:1028D000AB1CA21C884206E02378B3421DD161786C
:1028E000A21CAB1CB94218D114461D46BDE7207886
:1028F000617818B9414491F8480001E0FEF736FBD1
:10290000431F182B4FF0010008D89840044B034098
:10291000B3FA83F04009BDE8F0810020BDE8F08102
:1029200007007A0130B5013B13F8014F44B19142E1
:102930000AD0087840B94D78A54206D10231F3E7B4
:102940008B1A5842584130BD002030BD70B5064644
:102950000D460C462078617818B9314491F848004A
:1029600001E0FEF703FB162811D005DC06280AD08B
:1029700007280AD0052804E018280ADB1B2806DDF2
:102980001D2806D103E00334E4E70434E2E702340F
:10299000E0E7601B70BD38B505460C4620786178CD
:1029A00018B9294491F8480001E0FEF7DFFA093828
:1029B0000C2807D841F203030122824013400BB1D7
:1029C0000234EBE7204638BD2DE9F04107460C46BE
:1029D00016461D46B4423CD22078617818B9394475
:1029E00091F8480001E0FEF7C1FA053805282BD818
:1029F000DFE800F02A03052A0E07033425E004343B
:102A000023E04FF0FF336B602B6801332B601BE03A
:102A10002B6804F102080133B0452B600FD0A07879
:102A2000E17818B9394491F8480001E0FEF79EFAC0
:102A3000A0F10A035842584108B104F104084FF0CC
:102A4000FF336B60444600E002346B6801336B6017
:102A5000C0E7BDE8F08110B510F8013B11F8012B7B
:102A6000A3F16104192C98BF203BA2F1610498BF27
:102A7000DBB2192C9CBF203AD2B2934203D1002B77
:102A8000EAD1012010BD002010BD00000148FEF772
:102A900075B900BF7459010830B587B00DF1110345
:102AA000009304AC856B039105AB059403A9A8477B
:102AB000059BA34214BF9DF810004FF0FF3007B0F4
:102AC00030BD00000938172807D801238340044887
:102AD0001840003018BF012070470020704700BF29
:102AE000130080000312DF2B03DCD82B15DA1BB197
:102AF0007047FF2B09D07047094B034493F84830C7
:102B0000002B08BF4FF0FF307047A0F57F43FE3B1E
:102B1000022B38BF4FF0FF3070474FF0FF30704747
:102B2000E04E01088B78782B02D00131002023E0A1
:102B30000231002011F8013F3B2B21D0462B07D852
:102B4000412B0BD2303B092BF4D843EA001008E0AC
:102B5000A3F16102052AEDD8573B00E0373B03EBB8
:102B60000010B0F5881FE5DB0CE0303B0A2202FBC9
:102B70000030B0F5881F05DA11F8013F3B2BF4D186
:102B8000FFF7B0BF4FF0FF307047087910B1063142
:102B9000002031E04B79782BF9D1083111F8023C53
:102BA0002BB1B0F5881F01F10201F7DB2DE011F820
:102BB000013C3B2B27D0462B07D8412B0BD2303B77
:102BC000092BEED843EA0010EBE7A3F16102052AD6
:102BD000E7D8573B00E0373B03EB0010E1E711F883
:102BE000013C3B2B0FD0303B0A2202FB0030B0F5FA
:102BF000881F01F1020108DA11F8023C002BEED027
:102C00004FF0FF33EFE7FFF76DBF4FF0FF30704736
:102C1000487910B10631002031E00B79782BF9D1D9
:102C2000083111F8013C2BB1B0F5881F01F1020108
:102C3000F7DB2DE011F8023C3B2B27D0462B07D8C1
:102C4000412B0BD2303B092BEED843EA0010EBE7C7
:102C5000A3F16102052AE7D8573B00E0373B03EBBD
:102C60000010E1E711F8023C3B2B0FD0303B0A2269
:102C700002FB0030B0F5881F01F1020108DA11F8FB
:102C8000013C002BEED04FF0FF33EFE7FFF72ABFF8
:102C90004FF0FF307047000008B5D0F86C31D0F825
:102CA00070019847030C1B0483B9094A0312D25CD4
:102CB000C0F3421303EBC20200F01F00012303FA2A
:102CC00000F0044B53F82230184008BD002008BD26
:102CD000A04D01085C50010808B5D0F86C31D0F85F
:102CE00070019847030C1B0483B9094A0312D25C94
:102CF000C0F3421303EBC20200F01F00012303FAEA
:102D000000F0044B53F82230184008BD002008BDE5
:102D10005C5501085C50010808B5D0F86C31D0F85A
:102D200070019847030C1B041BB9FFF7DBFEC00FB3
:102D300008BD012008BD2DE9F04105460E461746A5
:102D40009846069C3168B94220D0D8F80030A3429A
:102D50001CD00B7805EB4303B3F8740168B9D5F8C0
:102D60006C21D5F870019047326880B213782B44FB
:102D700093F848100339114400E001313160D8F86C
:102D800000309A1CC8F800201880DBE7BDE8F0810D
:102D900038B5054668B10024084B284653F824107E
:102DA000FFF759FE38B90134062CF5D14FF0FF304A
:102DB00038BD062038BD204638BD00BFC44E0108CE
:102DC0000B78C12B09D94878020606D500F0C0005F
:102DD000A0F1C00358425841704701207047CB789A
:102DE0001A0621D503F0C003C02B1DD08B7818061E
:102DF0001AD503F0C003C02B16D00B784878F02BFF
:102E000002D18F2810D908E002060DD5F42B04D189
:102E10008F2894BF00200120704700F0C000A0F16F
:102E2000C00358425841704701207047F8B5054625
:102E300016461F464C1CB4424DD02178294491F8C7
:102E40004810062916D004D8012929D9052906D009
:102E50003BE0082924D018D31B2923D035E0331BAD
:102E6000012B35DDD5F86031284621469847B8B9A1
:102E7000A11C2BE0331B022B2ADDD5F86431284638
:102E80002146984760B9E11C20E0331B032B1FDD6E
:102E9000D5F8683128462146984708B9211D15E024
:102EA0003C600CE0611CB14215D063782D2B0DD134
:102EB000A11CB1420FD0A3783E2B02D03960002074
:102EC000F8BD03343C600D20F8BD611C0C46B2E730
:102ED0006FF00100F8BD4FF0FF30F8BD091A0B2369
:102EE0000329136016D10378582B03D0782B11D106
:102EF000002300E0012341784D2902D06D2901D043
:102F000008E0012381784C2906D06C2902D11BB935
:102F10000C231360012070470020704791422DE977
:102F2000F3410546884617461E4602D14FF0FF3052
:102F300021E10B78034493F84830072B25D004D8BF
:102F4000052B0BD0062B16D029E0182B03D01D2BF8
:102F500025D0162B23D108F1010427E0531A012BA9
:102F600002DC6FF0010006E1D0F854319847B0B1AF
:102F700008F102041AE0531A022BF2DDD0F858319E
:102F8000984760B108F1030410E0531A032BE8DD01
:102F9000D0F85C31984710B108F1040406E0C6F897
:102FA000008000E034600020E5E00134BC42BDD088
:102FB00023782B4493F84830053B182BF2D801A214
:102FC00052F823F029300008433000085D30000833
:102FD000A52F00087730000877300008A52F0008DB
:102FE000A52F0008A52F0008A52F00084F310008C5
:102FF000A52F0008A52F0008A52F0008A52F000861
:10300000A52F000877300008AB2F0008A52F000877
:10301000AB2F0008AB2F0008AB2F0008AB2F000828
:10302000A52F0008A52F00083B1B012B99DDD5F823
:103030004831284621469847002800F08F80023406
:10304000B4E73B1B022B8CDDD5F84C3128462146DA
:103050009847002800F082800334A7E73B1B032B2E
:103060007FF77FAFD5F85031284621469847002892
:1030700074D004349AE74046214601AAFFF72EFF98
:1030800000286BD00134BC423FF450AF23782B446E
:1030900093F848300F2B57D801A252F823F000BF05
:1030A000A52F0008A52F0008493100084931000864
:1030B00049310008E1300008FD30000819310008EE
:1030C000A52F00084931000849310008493100089E
:1030D00049310008493100084931000835310008FC
:1030E0003B1B012B7FF73DAFD5F8603128462146C9
:1030F000984700287FF456AFA31C26E03B1B022B09
:103100007FF72FAFD5F8643128462146984700282D
:103110007FF448AFE31C18E03B1B032B7FF721AF84
:10312000D5F8683128462146984700287FF43AAF01
:10313000231D0AE0631CBB423FF4F8AE62783E2ACE
:1031400003D10234346015E0631C1C469BE7404603
:10315000214601AA2546FFF7C1FE08B934600AE0FE
:103160000134BC423FF4E2AE6B783E2B7FF41AAFE1
:1031700002353560019802B0BDE8F08191422DE939
:10318000F34105460C4617461E4600F098840B781E
:10319000034493F848300A2B00F22B84DFE813F045
:1031A000270427040B00DF03F603060411041C04A4
:1031B0002704E503F20301F10108B84503D14FF0FC
:1031C000FF3000F084BC4B78034493F84830053B53
:1031D000182B00F25281DFE813F0190029003500A6
:1031E00050015001500150015001500150016E003A
:1031F0004100750050015001500150015D01500126
:103200005D0150015001500150015001C8EB07030E
:10321000012B03DC6FF0010000F059BCD0F85431F1
:1032200041469847002840F0418185E0C8EB0703FC
:10323000022BEFDDD0F8583141469847002840F086
:10324000418179E0C8EB0703032BE3DDD0F85C3163
:103250004146984700286FD0053449E18A1CBA429C
:10326000ADD08B78034493F84830142B0FD01B2B30
:1032700040F0D2830331B942A1D0E3782D2B40F046
:1032800034813A463346FFF7D1FD00F020BC0334C9
:103290003F1B052F93DD00232246B5491078595C6A
:1032A0000134884240F0B8830133062BF4D13460F6
:1032B000082000F00CBC02313A463346FFF72EFEE0
:1032C00000F005BC01F10208B8453FF478AF8B78F7
:1032D000034493F84830072B24D004D8052B0BD097
:1032E000062B13D0C9E0182B37D01D2B00F0C5805A
:1032F000162B40F0C28030E0C8EB0703012B89DDBC
:10330000D0F8543141469847A8BB15E0C8EB0703F5
:10331000022B7FF77FAFD0F858314146984758B11C
:1033200005342BE0C8EB0703032B7FF773AFD0F80E
:103330005C314146984710B9C6F80080C7E30634AF
:103340001CE03B1B022B7FF765AFD5F84C312846BC
:1033500021469847002800F0B78003340EE03B1B5D
:10336000032B7FF757AFD5F85031284621469847B1
:10337000002800F0A980043400E00134BC423FF48E
:103380001EAF23782B4493F84830053B182B00F2EE
:103390002E8301A252F823F0FD33000843330008C6
:1033A0005F330008EF3900081734000817340008AD
:1033B00073340008EF390008EF390008EF390008CE
:1033C000EF390008EF390008EF390008EF3900083D
:1033D000EF390008EF390008173400087B33000884
:1033E000EF3900087B3300087B3300087B3300088B
:1033F0007B330008EF390008EF3900083B1B012B35
:103400007FF708AFD5F8483128462146984700286D
:103410005AD00234B2E70134BC4223463FF4CFAE67
:103420001A7801342A4492F84820093A0C2A59D8CB
:1034300001A151F822F000BF193400081934000826
:103440006D340008E5340008E5340008E534000870
:10345000E5340008E5340008E5340008E5340008E8
:10346000E5340008E53400081934000801333360FE
:1034700001E001343460052029E3C6F8008032E021
:103480003B1B012B7FF7C6AED5F8483128462146B5
:103490009847C8B102342BE03B1B022B7FF7BAAE32
:1034A000D5F84C3128462146984768B103341FE0CF
:1034B0003B1B032B7FF7AEAED5F850312846214693
:1034C000984708B1043413E0346000E37B1A012B01
:1034D0007FF7A0AED5F8603128469847019B0028B9
:1034E00000F0468133600020F1E23160FBE70134F7
:1034F000BC423FF464AE23782B4493F84830053B3C
:10350000182B00F2748201A252F823F081340008D3
:1035100099340008B1340008EF3900087535000807
:10352000753500083F390008EF390008EF39000809
:10353000EF390008EF390008EF3900084739000873
:10354000EF390008EF390008EF3900087535000839
:10355000EF340008EF390008EF340008EF340008BA
:10356000EF340008EF340008EF390008EF390008A5
:10357000D0570108631CBB421C463FF420AE2278A2
:1035800001332A4492F84820053A182A00F22F8283
:1035900001A151F822F000BF013600081D360008D5
:1035A00039360008EF39000877350008773500080C
:1035B0003F390008EF390008EF390008EF390008FB
:1035C000EF390008EF39000847390008EF390008E3
:1035D000EF390008EF39000877350008FD3500089D
:1035E000EF390008FD350008EF390008EF39000811
:1035F000EF390008EF390008EF390008013428E0FE
:103600003B1B012B7FF706AED5F8543128462146E7
:10361000984700283FF458AF02341AE03B1B022BB6
:103620007FF7F8ADD5F8583128462146984700284D
:103630003FF44AAF03340CE03B1B032B7FF7EAADAA
:10364000D5F85C3128462146984700283FF43CAF26
:10365000043401940199B9423FF4B1AD0B782B4485
:1036600093F84830053B182B3FF63FAF01A252F8C4
:1036700023F000BFDF360008ED360008FB360008F7
:10368000EB3400082F3700082F370008EB34000810
:10369000EB340008EB34000865370008EB34000811
:1036A000EB340008EB340008EB340008EB3400087E
:1036B000EB3400082F370008D9360008EB34000837
:1036C000D9360008D9360008D9360008D93600089E
:1036D000EB340008EB34000801310191BAE77B1AA2
:1036E000012B7FF797ADD5F84831F5E07B1A022B17
:1036F0007FF790ADD5F84C31FAE07B1A032B7FF7BA
:1037000089ADD5F85031FFE05B782B4493F8483011
:103710000E2B27D0093BDBB20C2B00F27D8101215F
:10372000994041F203030B40002B00F07581019B8F
:103730005A1CBA420192E7D141E55978294491F8DF
:103740004840A4F10C01012912D9093CE4B20C2C27
:1037500000F2628141F203030121A1400B40002BE2
:1037600000F05A81019B5A1CBA420192E5D126E52C
:10377000023301930199B9423FF421AD0B782B44F8
:1037800093F84830A34242D0082B3DD801A252F80A
:1037900023F000BFEB340008EB340008EB340008E2
:1037A000F137000809380008CD340008B93700089F
:1037B000D5370008EB3400087B1A022B7FF72AADBF
:1037C000D5F8643128469847019B00287FF48AAEDB
:1037D0000333CEE77B1A032B7FF71CADD5F8683196
:1037E00028469847019B00287FF47CAE0433C0E74D
:1037F000284601313A4601ABFCF780FE0028B9DCCF
:1038000040F06581019B83E001310191B2E74A1CE0
:10381000BA4201923FF4D3AC4B782B4493F8483032
:10382000093B0C2B00F2F880DFE813F00D000D00CF
:103830007700F600F600F600F600F6007C00F600D1
:10384000F600F6000D00019B591CB94201913FF4AE
:10385000B6AC5A782A4492F84820053A182A3FF61E
:1038600044AE01A050F822F0CD380008E538000839
:10387000FD380008EB3400084738000847380008D6
:103880001B390008EB340008EB340008EB34000867
:10389000EB340008EB34000825390008EB3400084D
:1038A000EB340008EB34000847380008E138000822
:1038B000EB340008E1380008EB340008EB34000872
:1038C000EB340008EB340008EB3400087B1A012BC2
:1038D0007FF7A0ACD5F8543128469847019BB8B182
:1038E000023318E07B1A022B7FF794ACD5F85831DD
:1038F00028469847019B58B103330CE07B1A032BF1
:103900007FF788ACD5F85C3128469847019B08B909
:103910003360DCE0043301939CE6019B012001331A
:103920003360D4E0019B5A1CBA4201923FF447AC89
:1039300059783E2970D1023333600320C7E0013447
:1039400034600220C3E0631CBB423FF438AC6278B1
:103950003E2A7FF4C7AD023434600420B7E0013161
:103960003A463346FCF7CAFDB1E04B1CBB4200F0BF
:10397000A9804A78154495F848200A2A08BF8B1C6C
:10398000336001E0013434600720A0E001F1010858
:10399000B84500F09A804B785D2B4DD18B1CBB4213
:1039A00000F093808A783E2A46D19BE57B1A012B52
:1039B0007FF730ACD0F860319847C0B904F1020805
:1039C0003AE07B1A022B7FF725ACD0F86431984798
:1039D00068B904F103082FE07B1A032B7FF71AACB8
:1039E000D0F86831984710B904F1040824E0346035
:1039F00079E501F101081FE008F10103BB425AD04B
:103A000098F801205D2A16D108F10202BA4252D07C
:103A100098F802103E290ED1326064E5C8EB070326
:103A2000012B48DDD5F860312846414698470028EB
:103A300041D108F102039846B8453CD098F80030CF
:103A40002B4493F848300A2B32D801A252F823F0C5
:103A5000B73A0008B73A0008B73A0008B73A000882
:103A6000F93900081D3A00087D3A0008973A000825
:103A7000B73A0008B73A0008B73A0008C8EB07039E
:103A8000022B18DDD5F8643128464146984790B995
:103A900008F10303CFE7C8EB0703032B0BDDD5F8D1
:103AA000683128464146984728B908F10403C2E71F
:103AB00008F10103BFE7C6F80080062007E06FF0B9
:103AC000030004E06FF0020001E06FF0040002B0B8
:103AD000BDE8F081F8B5064615461F468C1CAC4281
:103AE00045D06078217818B9314491F8480001E058
:103AF000FDF73CFA062811D006DC002831DB01284E
:103B000016DD052806D02CE0082811D00BDB1B2879
:103B100010D026E02B1B012B23DC25E02B1B022BD6
:103B200022DDE21C1EE02B1B032B1DDD221D19E0F4
:103B30003C6010E0A21CAA4219D0E37893B9A378A4
:103B40002D2B0FD1221DAA4211D0637913B92379ED
:103B50003E2B02D03A600020F8BD06343C600D20B8
:103B6000F8BDA21C1446BAE76FF00100F8BD4FF093
:103B7000FF30F8BD0346C91A0B20062910601BD17F
:103B80005978C9B91878582802D0782801D013E09C
:103B90000121D87880B998784D2802D06D2801D0BD
:103BA0000AE00121587938B91B794C2B05D06C2BD0
:103BB00002D111B90C2313600120704791422DE905
:103BC000F74F0646884615461F4602D14FF0FF3094
:103BD0001DE191F801900C78B9F1000F03D10319A0
:103BE00093F8480003E048462146FDF7BFF907284F
:103BF00028D007DC05281ED0062827D1C8EB0505EC
:103C0000022D1BE0182813D01D2802D016281DD124
:103C10000EE0804B804913F80920630903EBC202D0
:103C200004F01F04012351F82220A34013420DD0B9
:103C300008F1040A27E0C8EB0505012D06DC6FF04A
:103C40000100E4E0C8EB0505032DF7E7C7F80080A5
:103C500003E02D1B012DF2DD3C600020D7E06F4B0F
:103C6000012013F80B204FEA591303EBC2036A4AF1
:103C700009F01F0952F8233000FA09F0184000F04B
:103C8000B5800AF1020AAAF10204AC429ED01AF8E9
:103C900001BC1AF8029CBBF1000F04D106EB09032A
:103CA00093F8480003E058464946FDF75FF90538A8
:103CB0001828D1D801A353F820F000BF533C0008C6
:103CC000213D0008273D0008593C00082D3D000813
:103CD0002D3D0008593C0008593C0008593C00089B
:103CE000593C0008DF3D0008593C0008593C0008D9
:103CF000593C0008593C0008593C00082D3D00087B
:103D0000833C0008593C0008833C0008833C0008C1
:103D1000833C0008833C0008593C00085F3C0008D5
:103D20002D1B022D97E72D1B032D94E740462146BE
:103D300001AAFFF71FFF002858D00234AC423FF41D
:103D400045AF6078217818B9314491F8480001E016
:103D5000FDF70CF90F283FD801A353F820F000BF5E
:103D6000593C0008593C0008D93D0008D93D0008DD
:103D7000D93D0008A13D0008A93D0008B53D000857
:103D8000593C0008D93D0008D93D0008D93D00083C
:103D9000D93D0008D93D0008D93D0008C13D0008C3
:103DA0002B1B012B18DC4AE72B1B022B7FF747AF9D
:103DB000E31C12E02B1B032B7FF741AF231D0CE00C
:103DC000A31CAB423FF402AFE27832B9A2783E2A9C
:103DD00003D104343C6019E0A31C1C46AEE7404606
:103DE000214601AA2646FFF7C5FE08B93C600EE051
:103DF0000234AC423FF4EAAEF378002B7FF42CAFF0
:103E0000B3783E2B7FF428AF04363E60019803B0B0
:103E1000BDE8F08F5C5501085C500108A04D010819
:103E200091422DE9F74F81460F4615461E4600F098
:103E3000B084531ADA0707D533F0010503D14FF0E8
:103E4000FF3400F0AEBC0D447878397818B9494495
:103E500091F8484002E0FDF789F804460A2C00F288
:103E60004684DFE814F0FC01FC010B00FE031F0494
:103E7000320436043D04FC0106041B0407F1020869
:103E8000A845DCD097F803B097F802A0BBF1000F6B
:103E900004D109EB0A0393F8480003E05846514661
:103EA000FDF764F80538182800F2A481DFE810F067
:103EB000300039003D00A201A201A201A201A2012D
:103EC000A201A2017D0041008400A201A201A20181
:103ED000A2012D00A2012D00A201A201A201A201B6
:103EE0001900CC4BCC4913F80B204FEA5A1303EBC3
:103EF000C2020AF01F0A012351F8222003FA0AF332
:103F0000134002D1C6F8008040E107F1060AABE198
:103F1000C8EB0505012D00F36D816FF0010400F081
:103F200040BCC8EB0505022DF5E7C8EB0505032DE0
:103F3000F1E73C1DAC4282D07879397918B949440F
:103F400091F8480001E0FDF711F8142813D01B2860
:103F500040F05381B91DA9423FF471AFFB7913B909
:103F6000BB792D2B01D031607AE148462A46334691
:103F7000FFF7B0FD7BE30637ED1B0B2D7FF75FAF3F
:103F80003B4600225978002940F06781A34917F881
:103F90001200515C884240F060810132062A03F130
:103FA0000203EFD133600824FBE34846391D2A465B
:103FB0003346FFF703FE5AE33C1DAC423FF43FAFEC
:103FC00097F805A097F80480BAF1000F04D109EB27
:103FD000080393F8480003E050464146FCF7C6FF4B
:103FE000072829D007DC052823D0062840F00581C2
:103FF0002D1B022D22E0182818D01D2803D01628CA
:1040000040F0FB8012E0834B012013F80A204FEAB6
:10401000581303EBC203804A08F01F0852F82330FC
:1040200000FA08F0184001D1346020E307F10808D5
:1040300019E02D1B012D01E02D1B032D00F3DD8068
:104040006BE7774B13F80A20630903EBC20204F015
:104050001F0301249C40704B53F82200044000F0E1
:10406000F28008F10208A8F10207AF423FF4E7AE80
:1040700018F801AC18F8024CBAF1000F04D109EBA2
:10408000040393F8480003E050462146FCF76EFF16
:104090000538182800F2E38001A353F820F000BF90
:1040A000FF410008054200080B4200085F4200087B
:1040B0000541000805410008614100085F42000811
:1040C0005F4200085F4200085F4200085F4200084C
:1040D0005F4200085F4200085F4200085F4200083C
:1040E00005410008634000085F4200086340000883
:1040F0006340000863400008634000085F42000816
:10410000434000080237AF423FF499AE78783978DF
:1041100018B9494491F8480001E0FCF727FF093835
:104120000C2800F29C8001A353F820F00541000800
:1041300005410008614100085F4200085F42000835
:104140005F4200085F4200085F4200085F420008CB
:104150005F4200085F4200085F4200080541000816
:104160000237376005241CE32D4B2B4913F80B2035
:104170004FEA581303EBC20208F01F08012351F85D
:10418000222003FA08F313406CD137601C4608E381
:1041900009380C2831D841F2030301228240134030
:1041A0005BB3019B9C1CAC4201943FF448AED878B1
:1041B0009978002840F04781494491F848000E283A
:1041C000E6D1019C04F10208A845CDF804803FF433
:1041D00036AEE078A178002840F03881494491F863
:1041E0004870A7F10C03012B40F24181093F0C2FCD
:1041F00040F23081C6F8008032E0346030E0ED1BE0
:10420000012D04E0ED1B022D01E0ED1B032D26DC4A
:1042100083E600BF5C5501085C500108535001085B
:10422000A04D0108D34A3B7812F808105A0902EB56
:10423000C10203F01F0301249C40CF4B53F822001E
:10424000044040F0A9803760ABE2BB1CAB423FF4B6
:10425000F6ADFA78002A00F0FC81336000E03760A8
:1042600000249EE20AF1020AAAF10207AF423FF4DB
:10427000E6AD1AF801BC1AF8028CBBF1000F04D1AC
:1042800009EB080393F8480003E058464146FCF761
:104290006DFE05381828E2D801A353F820F000BFBE
:1042A000FF410008054200080B4200085F42000879
:1042B00005430008054300084F4600085F42000818
:1042C0005F4200085F4200085F4200085F4200084A
:1042D0004B4200085F4200085F4200085F4200084E
:1042E00005430008654200085F4200086542000877
:1042F0006542000865420008654200085F42000808
:10430000694100080237AF423FF499AD97F8018048
:104310003978B8F1000F03D1494491F8480002E020
:104320004046FCF723FE0538182898D801A353F817
:1043300020F000BFFF410008054200080B420008C2
:104340005F42000805430008054300084F46000887
:104350005F4200085F4200085F4200085F420008B9
:104360005F4200084B4200085F4200085F420008BD
:104370005F42000805430008994300085F420008B7
:10438000994300085F4200085F4200085F4200084E
:104390005F4200082542000802370197019FAF42A3
:1043A0003FF44DAD97F801803C78B8F1000F04D18F
:1043B00009EB040393F8480003E040462146FCF76C
:1043C000D5FD053818283FF64AAF01A353F820F071
:1043D000FF410008054200080B4200085F42000848
:1043E000A3410008A34100085F4200085F420008A3
:1043F0005F420008C34100085F4200085F420008B6
:104400005F4200085F4200085F4200085F42000808
:10441000A3410008994300085F420008994300083F
:104420009943000899430008994300085F42000837
:1044300035440008514B13F80820630903EBC2020E
:1044400004F01F03F7E6FCF791FDB8E6FCF78EFDDC
:104450000746C6E641F203030122BA401340002B8F
:104460007FF4AFAEC6E62B1B032B7FF756AD0434AB
:104470000194019CAC423FF4E2AC6078217818B919
:10448000494491F8480001E0FCF770FDB84230D093
:1044900008282CD801A353F820F000BFFB410008E6
:1044A000FB410008FB410008D5440008EF44000828
:1044B000C1440008C944000867440008FB410008E3
:1044C0002B1B012B13DC28E52B1B022B7FF725ADC3
:1044D0000334CDE74846A11C2A4601ABFCF770FF28
:1044E0000028C6DC40F0C380019B3360BFE002348B
:1044F000BEE7A71CAF4201973FF4A1ACE078A178DA
:1045000018B9494491F8480001E0FCF72FFD09383B
:104510000C283FF6A4AE01A353F820F05145000843
:1045200051450008234600085F4200085F4200082A
:104530005F4200085F4200085F4200082D46000805
:104540005F4200085F4200085F42000851450008D2
:10455000DDF8048008F10207AF4201973FF46FAC29
:1045600098F8034098F8021054B9494491F848006B
:1045700009E000BF5C5501085C500108A04D01082E
:104580002046FCF7F3FC053818283FF668AE01A377
:1045900053F820F0FF410008054200080B420008D4
:1045A0005F420008514500085145000823460008B5
:1045B0005F4200085F4200085F4200085F42000857
:1045C0005F4200082D4600085F4200085F42000875
:1045D0005F420008514500081B4600085F42000882
:1045E0001B4600085F4200085F4200085F42000867
:1045F0005F420008F945000898F802306B4A115DE7
:104600005A09012403F01F039C40694B02EBC102CD
:1046100053F8220004403FF416AE08F1040301935E
:10462000BCE6019B012402333360BAE0019B9A1C73
:10463000AA4201923FF403ACD97811B999783E2986
:1046400001D032600CE6043333600324A9E0023762
:10465000F9E5BA783E2A7FF400AE043737600424C7
:104660009FE04846B91C2A463346FCF7A9FE04469B
:1046700097E0BC1CAC4200F08F80F878B97818B98C
:10468000494491F8480001E0FCF770FCA0F10A03EE
:104690005842584100B13C1D346001E00237376098
:1046A00007247EE007F10208A84578D0FB7823BBF9
:1046B000BB785D2B21D13B1DAB4270D07C79E4B936
:1046C0003A793E2A19D133606BE0EB1B012B0EDCEB
:1046D00023E4EB1B022B7FF720AC07F103080CE06F
:1046E000EB1B032B7FF719AC07F1040805E007F17A
:1046F000020802E008F103039846A84545D098F85F
:10470000010098F8001018B9494491F8484002E0B7
:10471000FCF72CFC04460A2C34D8DFE804F03636CB
:10472000363619060B1236363600C8EB0503012B58
:1047300028DC2AE0C8EB0503022BDBDCC6F800808E
:104740002FE0C8EB0503032B1FDD08F10403D3E7BB
:1047500008F10203AB4218D098F80320002ACBD10D
:1047600098F802205D2AC7D108F10402AA420CD0B1
:1047700098F80540002CBFD198F804103E29BBD111
:1047800032600EE008F10203B6E7C6F800800624A6
:1047900007E06FF0030404E06FF0020401E06FF043
:1047A0000404204603B0BDE8F08F00BF5C5501084B
:1047B0005C500108F8B5064615461F468C1CAC42F5
:1047C00045D02078617818B9314491F8480001E06B
:1047D000FCF7CCFB062811D006DC002831DB0128D1
:1047E00016DD052806D02CE0082811D00BDB1B288D
:1047F00010D026E02B1B012B23DC25E02B1B022BEA
:1048000022DDE21C1EE02B1B032B1DDD221D19E007
:104810003C6010E0A21CAA4219D0A37893B9E378B7
:104820002D2B0FD1221DAA4211D0237913B9637900
:104830003E2B02D03A600020F8BD06343C600D20CB
:10484000F8BDA21C1446BAE76FF00100F8BD4FF0A6
:10485000FF30F8BD0346C91A0B20062910601BD192
:104860001978C9B95878582802D0782801D013E0AF
:104870000121987880B9D8784D2802D06D2801D0D0
:104880000AE00121187938B95B794C2B05D06C2BE3
:1048900002D111B90C2313600120704791422DE918
:1048A000F3470646884615461F4602D14FF0FF30B3
:1048B00019E191F800904C78B9F1000F03D1031978
:1048C00093F8480003E048462146FCF74FFB0728D1
:1048D00028D007DC05281ED0062827D1C8EB0505FF
:1048E000022D1BE0182813D01D2802D016281DD138
:1048F0000EE07E4B7E4913F80920630903EBC202E8
:1049000004F01F04012351F82220A34013420DD0CC
:1049100008F1020426E0C8EB0505012D06DC6FF066
:104920000100E0E0C8EB0505032DF7E7C7F80080BC
:1049300003E02D1B012DF2DD3C600020D3E06D4B28
:10494000012013F80A204FEA591303EBC203684A07
:1049500009F01F0952F8233000FA09F0184000F05E
:10496000B1800234AC42A1D094F800A094F8019038
:10497000BAF1000F04D106EB090393F8480003E0F5
:1049800050464946FCF7F2FA05381828D4D801A356
:1049900053F820F033490008F9490008FF4900089E
:1049A00039490008054A0008054A00083949000845
:1049B000394900083949000839490008B74A000850
:1049C00039490008394900083949000839490008BF
:1049D00039490008054A00086349000839490008B8
:1049E00063490008634900086349000863490008F7
:1049F000394900083F4900082D1B022D9BE72D1B5C
:104A0000032D98E74046214601AAFFF723FF00281F
:104A100058D00234AC423FF449AF2078617818B9DD
:104A2000314491F8480001E0FCF7A0FA0F283FD884
:104A300001A353F820F000BF3949000839490008A4
:104A4000B14A0008B14A0008B14A0008794A000892
:104A5000814A00088D4A000839490008B14A000817
:104A6000B14A0008B14A0008B14A0008B14A00083A
:104A7000B14A0008994A00082B1B012B18DC4EE7AD
:104A80002B1B022B7FF74BAFE31C12E02B1B032BDE
:104A90007FF745AF231D0CE0A31CAB423FF406AFEC
:104AA000A27832B9E2783E2A03D104343C6019E09E
:104AB000A31C1C46AEE74046214601AA2646FFF746
:104AC000C9FE08B93C600EE00234AC423FF4EEAEE1
:104AD000B378002B7FF430AFF3783E2B7FF42CAF0C
:104AE00004363E60019802B0BDE8F0875C550108CD
:104AF0005C500108A04D010891422DE9F74F804616
:104B00000D4691461F4600F08D84531ADA0707D5EB
:104B100033F0010903D14FF0FF3400F08BBC89441E
:104B20002878697818B9414491F8484002E0FCF7C8
:104B30001DFA04460A2C00F22084DFE814F0E50197
:104B4000E5010B00D803F9030B0410041704E50179
:104B5000E003F503AE1C4E45DDD095F802B095F8A4
:104B600003A0BBF1000F04D108EB0A0393F848003F
:104B700003E058465146FCF7F9F90538182800F2C9
:104B80008B81DFE810F04000B200B7008901890195
:104B90008901890189018901890189004A002E0062
:104BA00089018901890189012C0089012C00890171
:104BB0008901890189011900C14BC24913F80B20F1
:104BC0004FEA5A1303EBC2020AF01F0A012351F8FD
:104BD000222003FA0AF3134001D13E602AE1043592
:104BE00096E12E1D4E4596D095F804A06C79BAF149
:104BF000000F58D108EB040393F84800072879D038
:104C000059DC052854D1C6EB0909B9F1010F00F3AD
:104C100043816FF0010400F00DBC2C1D4C453FF4A6
:104C20007AAF2879697918B9414491F8480001E0D0
:104C3000FCF79CF9142813D01B2840F02F81A91DE4
:104C400049453FF468AFAB7913B9EB792D2B01D00F
:104C500039605AE140464A463B46FFF7ABFD4CE31C
:104C60000635C5EB0909B9F10B0F7FF754AF2B4699
:104C7000002215F81210002940F04481924958781A
:104C8000515C884240F03E810132062A03F1020362
:104C9000EFD13B600824CDE34046291D4A463B4600
:104CA000FFF7FCFD29E350462146FCF75FF9A5E735
:104CB00006281AD0F0E0182815D01D2803D0162891
:104CC00040F0EA800FE07E4B13F80A20630903EB03
:104CD000C20204F01F0301249C407A4B53F82200C7
:104CE000044000F04C83063519E0C6EB0909B9F120
:104CF000020F8CE7C6EB0909B9F1030F87E7734B85
:104D00009A5D630903EBC20204F01F0301249C4077
:104D10006C4B53F82200044000F0EA8002354D4508
:104D20003FF4F9AE2E786C7826B908EB040393F8BB
:104D3000480003E030462146FCF718F905381828EA
:104D400000F2E28001A353F820F000BFA14E00085A
:104D5000AB4E0008B54E0008094F0008B14D0008E1
:104D6000B14D00080D4E0008094F0008094F00081A
:104D7000094F0008094F0008094F0008094F0008B3
:104D8000094F0008094F0008094F0008B14D0008FD
:104D90001D4D0008094F00081D4D00081D4D00085D
:104DA0001D4D00081D4D0008094F0008FF4C00086C
:104DB00002354D453FF4AFAE2878697818B94144C3
:104DC00091F8480001E0FCF7D1F809380C2800F20E
:104DD0009B8001A353F820F0B14D0008B14D0008AD
:104DE0000D4E0008094F0008094F0008094F000840
:104DF000094F0008094F0008094F0008094F000833
:104E0000094F0008094F0008B14D000802353D6008
:104E100005240FE32D4B2B4913F80A20730903EBEC
:104E2000C20206F01F06012351F82220B3401340AE
:104E30006DD13D601C46FDE209380C282ED841F2A8
:104E4000030301228240134043B3019B9C1C4C4549
:104E500001943FF460AE9878D978002840F03C8106
:104E6000414491F848000E28E6D1019CA61C4E450D
:104E700001963FF450AEA078E178002840F02F81F1
:104E8000414491F84850A5F10C03012B40F23981BF
:104E9000093D0C2D40F227813E6036E03C6034E055
:104EA000C5EB0909B9F1010F08E0C5EB0909B9F132
:104EB000020F03E0C5EB0909B9F1030F24DCA8E6F2
:104EC0005C5501085C500108B24E0108A04D010874
:104ED000CC4A6B78915D5A0902EBC10203F01F03C3
:104EE00001249C40C84B53F82200044040F0A080AD
:104EF0003D609FE2AB1C4B453FF40DAEAA78002A03
:104F000000F0ED813B6000E03D60002492E202355C
:104F10004D453FF400AE95F800A06E78BAF1000F51
:104F200004D108EB060393F8480003E050463146ED
:104F3000FCF71CF805381828E6D801A353F820F030
:104F4000A14E0008AB4E0008B54E0008094F0008FE
:104F5000A54F0008A54F0008DB520008094F0008C4
:104F6000094F0008094F0008094F0008094F0008C1
:104F7000F54E0008094F0008094F0008094F0008C6
:104F8000A54F00080F4F0008094F00080F4F0008F9
:104F90000F4F00080F4F00080F4F0008094F00087F
:104FA000154E000802354D453FF4B5AD2E786978B1
:104FB0001EB9414491F8480002E03046FBF7D6FFA5
:104FC00005381828A0D801A353F820F0A14E0008F6
:104FD000AB4E0008B54E0008094F0008A54F000869
:104FE000A54F0008DB520008094F0008094F0008D0
:104FF000094F0008094F0008094F0008F54E000846
:10500000094F0008094F0008094F0008A54F000884
:1050100031500008094F000831500008094F0008BE
:10502000094F0008094F0008094F0008D14E000839
:1050300002350195019D4D453FF46DAD2E786C789C
:1050400026B908EB040393F8480003E030462146F4
:10505000FBF78CFF053818283FF656AF01A353F82D
:1050600020F000BFA14E0008AB4E0008B54E00086E
:10507000094F00084B4E00084B4E0008094F00082E
:10508000094F0008094F00086B4E0008094F00083F
:10509000094F0008094F0008094F0008094F000890
:1050A000094F00084B4E000831500008094F000816
:1050B00031500008315000083150000831500008CC
:1050C000094F0008C9500008504B9A5D630903EB73
:1050D000C20204F01F0303E7FBF748FFC3E6FBF738
:1050E00045FF0546CFE641F203030122AA401340E3
:1050F000002B7FF4BAAECFE6C4EB0903032B7FF796
:1051000088AD04340194019C4C453FF404AD2078F3
:10511000617818B9414491F8480001E0FBF726FF97
:10512000A84232D008282ED801A353F820F000BF9F
:105130009D4E00089D4E00089D4E00086D510008D0
:1051400087510008555100085F510008F9500008C8
:105150009D4E0008C4EB0903012B14DC59E5C4EB98
:105160000903022B7FF755AD0334CBE74046A11C62
:105170004A4601ABFCF722FF0028C4DC40F0BD80AA
:10518000019B3B60B9E00234BCE7A51C4D4501958D
:105190003FF4C1ACA078E17818B9414491F84800D7
:1051A00001E0FBF7E3FE09380C283FF6ADAE01A3A2
:1051B00053F820F0E9510008E9510008AF52000807
:1051C000094F0008094F0008094F0008094F00085F
:1051D000094F0008B9520008094F0008094F00089C
:1051E000094F0008E9510008019EB51C4D45019585
:1051F0003FF491ACB478F17854B9414491F8480047
:1052000009E000BF5C5501085C500108A04D010891
:105210002046FBF7ABFE053818283FF675AE01A314
:1052200053F820F0A14E0008AB4E0008B54E000820
:10523000094F0008E9510008E9510008AF52000881
:10524000094F0008094F0008094F0008094F0008DE
:10525000094F0008B9520008094F0008094F00081B
:10526000094F0008E9510008A9520008094F000839
:10527000A9520008094F0008094F0008094F00080B
:10528000094F000889520008F3786C4A115D5A09E9
:10529000012403F01F039C40694B02EBC10253F849
:1052A000220004403FF424AE04360196C2E6019B7E
:1052B000012402333B60BDE0019B9A1C4A450192E8
:1052C0003FF429AC997811B9D9783E2901D03A60D8
:1052D0001BE604333B600324ACE0023508E6EA78C1
:1052E0003E2A7FF40FAE04353D600424A2E0404620
:1052F000A91C4A463B46FCF761FE04469AE0AC1CFA
:105300004C4500F09280A878E97818B9414491F8AA
:10531000480001E0FBF72AFEA0F10A035842584179
:1053200000B12C1D3C6001E002353D60072481E0A6
:10533000AE1C4E457CD0AB784BBBEB785D2B26D1B9
:105340002B1D4B4574D02C790CBB6A793E2A1ED19B
:105350003B606FE0C5EB0903012B0EDC59E4C5EBA4
:105360000903022B7FF755ACEE1C10E0C5EB0903D7
:10537000032B7FF74EAC2E1D09E0AE1C07E03E600C
:1053800058E0C6EB0903022BF9DDF31C1E464E451F
:1053900045D03078717818B9414491F8484002E01E
:1053A000FBF7E4FD04460A2C37D801A353F824F098
:1053B0001F5400081F5400081F5400081F54000801
:1053C000F3530008DD53000883530008E753000837
:1053D0001F5400081F5400081F540008C6EB09039F
:1053E000012B1ADC1BE0C6EB0903032B17DD331D71
:1053F000CCE7B31C4B4512D0B278002AC6D1F27864
:105400005D2AC3D1321D4A4509D03479002CBDD163
:1054100071793E29BAD13A600CE0B31CB6E73E6020
:10542000062407E06FF0030404E06FF0020401E0DB
:105430006FF00404204603B0BDE8F08F5C5501080E
:105440005C5001082DE9F84F914205460C4617467D
:105450009A46DDF828B0DDF8308003D10023CAF881
:1054600000307CE0FDF718FBFDF72CFB064600281A
:105470006BD02B6C3A461C4421462846FDF70CFBAA
:10548000FDF720FB06460028F3D1BC42E6D0CAF85F
:1054900000403A4628462146FDF7FEFA421C54D009
:1054A0003D2802D1CBF800401CE0FDF70BFBB0B16A
:1054B000A146CBF800402B6C2846994449463A4611
:1054C000FDF7EAFA8346FDF7FDFA0028F3D1BBF1B8
:1054D0003D0F4C4606D0C8F80090064640E02B6CC5
:1054E0001C44D6E7DAF800309C422ED02B6C3A46AA
:1054F0001C4421462846FDF7CFFA8146FDF7E2FA23
:1055000006460028F2D1B9F1220F02D0B9F1270FD7
:105510001BD12B6C1C440B9B1C60284621463A4631
:10552000FDF7BAFA5FFA89F3984214D020F020030D
:10553000413B192B0CD9A0F13003092B08D9A0F15C
:105540002D03012B04D95F2802D0C8F8004007E0E2
:105550002B6C1C44E1E72B6C1C44C8F8004001266E
:105560003046BDE8F88F0000F0B50C4611461A46EB
:105570009142059B77D04E1CB242856C14D1012C10
:1055800074D190F84570FE1E022E6FD90E78EF2E62
:1055900007D004D8002E69D03C2E67D057E0FE2EED
:1055A00055D3002F53D061E04EF6BB7C91F800E05C
:1055B0004F7847EA0E26664525D003DCB6F5705FC6
:1055C00012D034E04FF6FF6C664504D04FF6FE7CF7
:1055D00066450FD02BE090F845600EB9012C36D00F
:1055E00002311960234B1FE090F84560033E012E05
:1055F00029D92AE090F845600EB9012C27D0023154
:1056000019601D4B10E0012C05D190F84560F6B1F2
:10561000033E022E1BD98E1CB24227D08E78BF2E9D
:1056200015D103311960154B2B600E20F0BDBEF172
:10563000000F07D1012C03D190F84560052E06D04C
:105640000C4809E01FB9012C01D00B4804E090F888
:1056500045600B4850F82600286050F82440A446C6
:10566000BDE8F04060476FF00300F0BD4FF0FF3041
:10567000F0BD00BFE05A01086456010874590108E2
:10568000D857010837B50D461446009301212A4624
:105690002346FFF769FF03B030BD37B50D4614460A
:1056A000009300212A462346FFF75EFF03B030BD7A
:1056B00091422DE9F34106460C4617461D4600F07F
:1056C000C5820B78034493F84830023B222B00F24A
:1056D0002782DFE813F02E002502D700E501F7014D
:1056E0000B022502A800AB002001230026002502A2
:1056F00025022502250225022401D300AB001D024C
:1057000025021D0221022102210225022502C700D5
:10571000EC00F00025022502CF001C0100950C20B2
:1057200001E000950D203146621C3B46FBF77AF8FC
:1057300097E20131B94200F092826378034493F812
:105740004830053BDBB2182B6BD8012202FA03F379
:10575000A04A1A40002A61D15A0557D4180560D5CD
:10576000A21CBA4200F07B82A378334493F84830FD
:10577000143B072B00F2C980DFE803F013C717C7FB
:1057800017C7C704E11CB94200F06982E3782D2BEA
:1057900047D130463A462B4602B0BDE8F041FDF70E
:1057A00045BB03342C6021205BE20334BC4223461A
:1057B00000F055821A780134324492F84820093AB0
:1057C000D2B2152A20D8012101FA02F212F4204F98
:1057D000ECD141F20300104098B9920214D55A1846
:1057E000974200F03C825A78164496F84820093ACD
:1057F000D2B2152A05D89140774A0A400AB12B60E7
:105800002FE22B6010202CE22B608AE13A462B46D7
:10581000A11C02B0BDE8F041FDF780BB2C601D204B
:105820001FE229607DE14B1CBB4201D001340AE03C
:105830002F606FF00E0014E213780134334493F8B4
:1058400048300A2B03D1BC422246F5D107E0152B84
:10585000F9D0092B01D1A742F5D12A6000E02C60D4
:105860000F20FEE13A462B46013102B0BDE8F0417F
:10587000FAF72CBF01342C602620F2E101342C60B1
:105880001920EEE14B1CBB4200F0E3814A785D2A0F
:105890000AD18A1C974200F0E2818A783E2A03D11D
:1058A00003342C602220DCE12B601A20D9E1013482
:1058B0002C601720D5E14A1CBA4200F0CD814B780C
:1058C0001E4496F84830093B1B2B1ED8DFE803F036
:1058D0001A1A1A1D1D1D121D1D1D1D1D1A1D1D1D0F
:1058E0001D1D1D1D1D1D1D1A0E161A1A02342C60B9
:1058F0002420B6E102342C602320B2E102342C6073
:105900002520AEE12A601820ABE12A6009E10134CC
:105910002C601520A5E101342C601120A1E101F1DA
:105920000108B84500F09B814B78034493F8483058
:10593000072B24D004D8052B09D0062B14D02CE03B
:10594000182B38D01D2B28D0162B26D133E0C8EBCE
:105950000703012B02DC6FF0010082E1D0F8543123
:1059600041469847A0BB13E0C8EB0703022BF2DDCA
:10597000D0F858314146984700283AD108E0C8EBA2
:105980000703032BE7DDD0F85C314146984710B997
:10599000C5F8008065E105342CE0C5F80080C0E062
:1059A0003B1B012BD7DDD6F84831304621469847BE
:1059B000002800F0B38002341CE03B1B022BCADD40
:1059C000D6F84C31304621469847002800F0A68092
:1059D00003340FE007000A01031020003B1B032BD8
:1059E000B9DDD6F85031304621469847002800F0FE
:1059F00095800434BC4250D02378334493F8483027
:105A0000053B1F2B00F28C8001A252F823F000BF4F
:105A1000A1590008BB590008DD590008215B0008A6
:105A2000955A0008955A0008955A0008215B00080D
:105A3000215B0008215B0008215B0008215B000856
:105A4000215B0008215B0008215B0008215B000846
:105A5000955A0008915A0008215B0008915A0008E5
:105A6000915A0008915A0008915A0008215B0008D9
:105A7000215B0008955A0008215B0008955A000830
:105A8000215B0008215B0008215B0008955A000893
:105A90000134AFE72C601420E3E06FF01300E0E086
:105AA0007B1A012B7FF757AFD0F85431984708B1D4
:105AB00002342EE0D6F8483130462146984778B374
:105AC000023410E07B1A022B7FF745AFD0F8583133
:105AD000984708B103341CE0D6F84C3130462146D3
